{
  "_format": "hh-sol-artifact-1",
  "contractName": "FundMe",
  "sourceName": "contracts/FundMe.sol",
  "abi": [
    {
      "inputs": [
        {
          "internalType": "address",
          "name": "priceFeedAddress",
          "type": "address"
        }
      ],
      "stateMutability": "nonpayable",
      "type": "constructor"
    },
    {
      "inputs": [
        {
          "internalType": "address",
          "name": "",
          "type": "address"
        }
      ],
      "name": "FunderToAmount",
      "outputs": [
        {
          "internalType": "uint256",
          "name": "",
          "type": "uint256"
        }
      ],
      "stateMutability": "view",
      "type": "function"
    },
    {
      "inputs": [],
      "name": "fund",
      "outputs": [],
      "stateMutability": "payable",
      "type": "function"
    },
    {
      "inputs": [
        {
          "internalType": "uint256",
          "name": "",
          "type": "uint256"
        }
      ],
      "name": "funders",
      "outputs": [
        {
          "internalType": "address",
          "name": "",
          "type": "address"
        }
      ],
      "stateMutability": "view",
      "type": "function"
    },
    {
      "inputs": [],
      "name": "minUSD",
      "outputs": [
        {
          "internalType": "uint256",
          "name": "",
          "type": "uint256"
        }
      ],
      "stateMutability": "view",
      "type": "function"
    },
    {
      "inputs": [],
      "name": "priceFeed",
      "outputs": [
        {
          "internalType": "contract AggregatorV3Interface",
          "name": "",
          "type": "address"
        }
      ],
      "stateMutability": "view",
      "type": "function"
    },
    {
      "inputs": [],
      "name": "withdraw",
      "outputs": [],
      "stateMutability": "nonpayable",
      "type": "function"
    }
  ],
  "bytecode": "0x60a06040526802b5e3af16b18800006000553480156200001e57600080fd5b506040516200121438038062001214833981810160405281019062000044919062000181565b62000060677f0411df84f4073660c01b6200011460201b60201c565b6200007c67ac66ee374505d8a460c01b6200011460201b60201c565b3373ffffffffffffffffffffffffffffffffffffffff1660808173ffffffffffffffffffffffffffffffffffffffff1681525050620000cc6706395dab163a327a60c01b6200011460201b60201c565b80600160006101000a81548173ffffffffffffffffffffffffffffffffffffffff021916908373ffffffffffffffffffffffffffffffffffffffff16021790555050620001b3565b50565b600080fd5b600073ffffffffffffffffffffffffffffffffffffffff82169050919050565b600062000149826200011c565b9050919050565b6200015b816200013c565b81146200016757600080fd5b50565b6000815190506200017b8162000150565b92915050565b6000602082840312156200019a576200019962000117565b5b6000620001aa848285016200016a565b91505092915050565b608051611045620001cf60003960006101c901526110456000f3fe6080604052600436106100555760003560e01c80630715ee1c1461005a5780633ccfd60b14610097578063741bef1a146100ae578063b60d4288146100d9578063dc0d3dff146100e3578063dc992aa014610120575b600080fd5b34801561006657600080fd5b50610081600480360381019061007c9190610a1f565b61014b565b60405161008e9190610a65565b60405180910390f35b3480156100a357600080fd5b506100ac610163565b005b3480156100ba57600080fd5b506100c3610523565b6040516100d09190610adf565b60405180910390f35b6100e1610549565b005b3480156100ef57600080fd5b5061010a60048036038101906101059190610b26565b61070b565b6040516101179190610b62565b60405180910390f35b34801561012c57600080fd5b5061013561074a565b6040516101429190610a65565b60405180910390f35b60036020528060005260406000206000915090505481565b61017767d32fab93a5c141e760c01b610750565b61018b67794576450f6f87fc60c01b610750565b61019f671612b5db88884c4760c01b610750565b6101b3677de0cc444ecd894c60c01b610750565b6101c7673e9e7c2fafa602ec60c01b610750565b7f000000000000000000000000000000000000000000000000000000000000000073ffffffffffffffffffffffffffffffffffffffff163373ffffffffffffffffffffffffffffffffffffffff1614610255576040517f08c379a000000000000000000000000000000000000000000000000000000000815260040161024c90610bda565b60405180910390fd5b6102696738eaac7040f2328060c01b610750565b61027d672853179f7966e81160c01b610750565b6102916759a55dcbacd8253860c01b610750565b6102a567838f22e730a8ddf760c01b610750565b6102b96794e1789f6398e29d60c01b610750565b6102cd670e3072264a489f9060c01b610750565b60005b600280549050811015610387576102f167142d5c99b843458260c01b610750565b6000600360006002848154811061030b5761030a610bfa565b5b9060005260206000200160009054906101000a900473ffffffffffffffffffffffffffffffffffffffff1673ffffffffffffffffffffffffffffffffffffffff1673ffffffffffffffffffffffffffffffffffffffff16815260200190815260200160002081905550808061037f90610c58565b9150506102d0565b5061039c67a414c757a2b0934960c01b610750565b600067ffffffffffffffff8111156103b7576103b6610ca0565b5b6040519080825280602002602001820160405280156103e55781602001602082028036833780820191505090505b50600290805190602001906103fb929190610915565b50610410670d84440fc554631960c01b610750565b610424670d9153ba737f957160c01b610750565b60003373ffffffffffffffffffffffffffffffffffffffff164760405161044a90610d00565b60006040518083038185875af1925050503d8060008114610487576040519150601f19603f3d011682016040523d82523d6000602084013e61048c565b606091505b505090506104a4674118fbf87601278560c01b610750565b6104b8672f025c66a78a1d8360c01b610750565b6104cc67f620f1e58b1d5e5360c01b610750565b8061050c576040517f08c379a000000000000000000000000000000000000000000000000000000000815260040161050390610d61565b60405180910390fd5b610520672fe92b53f7b45ab160c01b610750565b50565b600160009054906101000a900473ffffffffffffffffffffffffffffffffffffffff1681565b61055d67eb1740e8f2ce958460c01b610750565b610571678d9ccac8797aeb0960c01b610750565b61058567a76aaf44ccf8117960c01b610750565b6105996766c4646d23ab1c8160c01b610750565b6000546105d1600160009054906101000a900473ffffffffffffffffffffffffffffffffffffffff163461075390919063ffffffff16565b1015610612576040517f08c379a000000000000000000000000000000000000000000000000000000000815260040161060990610dcd565b60405180910390fd5b610626678c37ffbbae83c9da60c01b610750565b61063a67a757d5ea259186b560c01b610750565b34600360003373ffffffffffffffffffffffffffffffffffffffff1673ffffffffffffffffffffffffffffffffffffffff168152602001908152602001600020819055506106926734ee92b8b18f80d660c01b610750565b6106a6673eda4c81260ddb8a60c01b610750565b6002339080600181540180825580915050600190039060005260206000200160009091909190916101000a81548173ffffffffffffffffffffffffffffffffffffffff021916908373ffffffffffffffffffffffffffffffffffffffff160217905550565b6002818154811061071b57600080fd5b906000526020600020016000915054906101000a900473ffffffffffffffffffffffffffffffffffffffff1681565b60005481565b50565b60006107696743f2e98c0f5be35e60c01b61081c565b61077d67fee4aa685328709260c01b61081c565b61079167e6819cb5a62bb57c60c01b61081c565b600061079c8361081f565b90506107b2676a74a83a2f4b355060c01b61081c565b6107c6670bd15e808df2054660c01b61081c565b6000670de0b6b3a764000085836107dd9190610ded565b6107e79190610e5e565b90506107fd6748e50946fad29d0f60c01b61081c565b61081167287213543c60f49260c01b61081c565b809250505092915050565b50565b600061083567b763643c8e6798f860c01b61081c565b610849670762e211c6d838aa60c01b61081c565b61085d6770b7d915d65a203b60c01b61081c565b60008273ffffffffffffffffffffffffffffffffffffffff1663feaf968c6040518163ffffffff1660e01b815260040160a060405180830381865afa1580156108aa573d6000803e3d6000fd5b505050506040513d601f19601f820116820180604052508101906108ce9190610f1c565b5050509150506108e867c79c7416bc99b6b460c01b61081c565b6108fc679d089caea4931c3c60c01b61081c565b6402540be4008161090d9190610f97565b915050919050565b82805482825590600052602060002090810192821561098e579160200282015b8281111561098d5782518260006101000a81548173ffffffffffffffffffffffffffffffffffffffff021916908373ffffffffffffffffffffffffffffffffffffffff16021790555091602001919060010190610935565b5b50905061099b919061099f565b5090565b5b808211156109b85760008160009055506001016109a0565b5090565b600080fd5b600073ffffffffffffffffffffffffffffffffffffffff82169050919050565b60006109ec826109c1565b9050919050565b6109fc816109e1565b8114610a0757600080fd5b50565b600081359050610a19816109f3565b92915050565b600060208284031215610a3557610a346109bc565b5b6000610a4384828501610a0a565b91505092915050565b6000819050919050565b610a5f81610a4c565b82525050565b6000602082019050610a7a6000830184610a56565b92915050565b6000819050919050565b6000610aa5610aa0610a9b846109c1565b610a80565b6109c1565b9050919050565b6000610ab782610a8a565b9050919050565b6000610ac982610aac565b9050919050565b610ad981610abe565b82525050565b6000602082019050610af46000830184610ad0565b92915050565b610b0381610a4c565b8114610b0e57600080fd5b50565b600081359050610b2081610afa565b92915050565b600060208284031215610b3c57610b3b6109bc565b5b6000610b4a84828501610b11565b91505092915050565b610b5c816109e1565b82525050565b6000602082019050610b776000830184610b53565b92915050565b600082825260208201905092915050565b7f53656e646572206973206e6f74206f776e657200000000000000000000000000600082015250565b6000610bc4601383610b7d565b9150610bcf82610b8e565b602082019050919050565b60006020820190508181036000830152610bf381610bb7565b9050919050565b7f4e487b7100000000000000000000000000000000000000000000000000000000600052603260045260246000fd5b7f4e487b7100000000000000000000000000000000000000000000000000000000600052601160045260246000fd5b6000610c6382610a4c565b91507fffffffffffffffffffffffffffffffffffffffffffffffffffffffffffffffff8203610c9557610c94610c29565b5b600182019050919050565b7f4e487b7100000000000000000000000000000000000000000000000000000000600052604160045260246000fd5b600081905092915050565b50565b6000610cea600083610ccf565b9150610cf582610cda565b600082019050919050565b6000610d0b82610cdd565b9150819050919050565b7f43616c6c205472616e73616374696f6e204661696c7572650000000000000000600082015250565b6000610d4b601883610b7d565b9150610d5682610d15565b602082019050919050565b60006020820190508181036000830152610d7a81610d3e565b9050919050565b7f4469646e27742073656e6420656e6f7567680000000000000000000000000000600082015250565b6000610db7601283610b7d565b9150610dc282610d81565b602082019050919050565b60006020820190508181036000830152610de681610daa565b9050919050565b6000610df882610a4c565b9150610e0383610a4c565b9250828202610e1181610a4c565b91508282048414831517610e2857610e27610c29565b5b5092915050565b7f4e487b7100000000000000000000000000000000000000000000000000000000600052601260045260246000fd5b6000610e6982610a4c565b9150610e7483610a4c565b925082610e8457610e83610e2f565b5b828204905092915050565b600069ffffffffffffffffffff82169050919050565b610eae81610e8f565b8114610eb957600080fd5b50565b600081519050610ecb81610ea5565b92915050565b6000819050919050565b610ee481610ed1565b8114610eef57600080fd5b50565b600081519050610f0181610edb565b92915050565b600081519050610f1681610afa565b92915050565b600080600080600060a08688031215610f3857610f376109bc565b5b6000610f4688828901610ebc565b9550506020610f5788828901610ef2565b9450506040610f6888828901610f07565b9350506060610f7988828901610f07565b9250506080610f8a88828901610ebc565b9150509295509295909350565b6000610fa282610ed1565b9150610fad83610ed1565b9250828202610fbb81610ed1565b91507f80000000000000000000000000000000000000000000000000000000000000008414600084121615610ff357610ff2610c29565b5b828205841483151761100857611007610c29565b5b509291505056fea2646970667358221220c5d8215692e99f6cb86d0fdf1e34873be0b97e706edf52659fc20e4c923df22b64736f6c63430008110033",
  "linkReferences": {},
  "deployedLinkReferences": {}
}