{
    "address": "0xe7f1725E7734CE288F8367e1Bb143E90bb3F0512",
    "abi": [
        {
            "inputs": [
                {
                    "internalType": "address",
                    "name": "priceFeedAddress",
                    "type": "address"
                }
            ],
            "stateMutability": "nonpayable",
            "type": "constructor"
        },
        {
            "inputs": [
                {
                    "internalType": "address",
                    "name": "",
                    "type": "address"
                }
            ],
            "name": "FunderToAmount",
            "outputs": [
                {
                    "internalType": "uint256",
                    "name": "",
                    "type": "uint256"
                }
            ],
            "stateMutability": "view",
            "type": "function"
        },
        {
            "inputs": [],
            "name": "fund",
            "outputs": [],
            "stateMutability": "payable",
            "type": "function"
        },
        {
            "inputs": [
                {
                    "internalType": "uint256",
                    "name": "",
                    "type": "uint256"
                }
            ],
            "name": "funders",
            "outputs": [
                {
                    "internalType": "address",
                    "name": "",
                    "type": "address"
                }
            ],
            "stateMutability": "view",
            "type": "function"
        },
        {
            "inputs": [],
            "name": "minUSD",
            "outputs": [
                {
                    "internalType": "uint256",
                    "name": "",
                    "type": "uint256"
                }
            ],
            "stateMutability": "view",
            "type": "function"
        },
        {
            "inputs": [],
            "name": "priceFeed",
            "outputs": [
                {
                    "internalType": "contract AggregatorV3Interface",
                    "name": "",
                    "type": "address"
                }
            ],
            "stateMutability": "view",
            "type": "function"
        },
        {
            "inputs": [],
            "name": "withdraw",
            "outputs": [],
            "stateMutability": "nonpayable",
            "type": "function"
        }
    ],
    "transactionHash": "0xc53ab5ecfb8d8eccfac499f492f42b6b66a668284ce84ba0fe72ee6a91ce70d9",
    "args": [
        "0x5FbDB2315678afecb367f032d93F642f64180aa3"
    ],
    "numDeployments": 1,
    "solcInputHash": "41ece8284449cd02294de3bcf6b36f3e",
    "bytecode": "0x60a06040526802b5e3af16b188000060005534801561001d57600080fd5b50604051610e96380380610e96833981810160405281019061003f919061011d565b3373ffffffffffffffffffffffffffffffffffffffff1660808173ffffffffffffffffffffffffffffffffffffffff168152505080600160006101000a81548173ffffffffffffffffffffffffffffffffffffffff021916908373ffffffffffffffffffffffffffffffffffffffff1602179055505061014a565b600080fd5b600073ffffffffffffffffffffffffffffffffffffffff82169050919050565b60006100ea826100bf565b9050919050565b6100fa816100df565b811461010557600080fd5b50565b600081519050610117816100f1565b92915050565b600060208284031215610133576101326100ba565b5b600061014184828501610108565b91505092915050565b608051610d3161016560003960006101650152610d316000f3fe6080604052600436106100555760003560e01c80630715ee1c1461005a5780633ccfd60b14610097578063741bef1a146100ae578063b60d4288146100d9578063dc0d3dff146100e3578063dc992aa014610120575b600080fd5b34801561006657600080fd5b50610081600480360381019061007c919061070b565b61014b565b60405161008e9190610751565b60405180910390f35b3480156100a357600080fd5b506100ac610163565b005b3480156100ba57600080fd5b506100c36103a7565b6040516100d091906107cb565b60405180910390f35b6100e16103cd565b005b3480156100ef57600080fd5b5061010a60048036038101906101059190610812565b6104ef565b604051610117919061084e565b60405180910390f35b34801561012c57600080fd5b5061013561052e565b6040516101429190610751565b60405180910390f35b60036020528060005260406000206000915090505481565b7f000000000000000000000000000000000000000000000000000000000000000073ffffffffffffffffffffffffffffffffffffffff163373ffffffffffffffffffffffffffffffffffffffff16146101f1576040517f08c379a00000000000000000000000000000000000000000000000000000000081526004016101e8906108c6565b60405180910390fd5b60005b600280549050811015610297576000600360006002848154811061021b5761021a6108e6565b5b9060005260206000200160009054906101000a900473ffffffffffffffffffffffffffffffffffffffff1673ffffffffffffffffffffffffffffffffffffffff1673ffffffffffffffffffffffffffffffffffffffff16815260200190815260200160002081905550808061028f90610944565b9150506101f4565b50600067ffffffffffffffff8111156102b3576102b261098c565b5b6040519080825280602002602001820160405280156102e15781602001602082028036833780820191505090505b50600290805190602001906102f7929190610601565b5060003373ffffffffffffffffffffffffffffffffffffffff164760405161031e906109ec565b60006040518083038185875af1925050503d806000811461035b576040519150601f19603f3d011682016040523d82523d6000602084013e610360565b606091505b50509050806103a4576040517f08c379a000000000000000000000000000000000000000000000000000000000815260040161039b90610a4d565b60405180910390fd5b50565b600160009054906101000a900473ffffffffffffffffffffffffffffffffffffffff1681565b600054610405600160009054906101000a900473ffffffffffffffffffffffffffffffffffffffff163461053490919063ffffffff16565b1015610446576040517f08c379a000000000000000000000000000000000000000000000000000000000815260040161043d90610ab9565b60405180910390fd5b34600360003373ffffffffffffffffffffffffffffffffffffffff1673ffffffffffffffffffffffffffffffffffffffff168152602001908152602001600020819055506002339080600181540180825580915050600190039060005260206000200160009091909190916101000a81548173ffffffffffffffffffffffffffffffffffffffff021916908373ffffffffffffffffffffffffffffffffffffffff160217905550565b600281815481106104ff57600080fd5b906000526020600020016000915054906101000a900473ffffffffffffffffffffffffffffffffffffffff1681565b60005481565b60008061054083610570565b90506000670de0b6b3a764000085836105599190610ad9565b6105639190610b4a565b9050809250505092915050565b6000808273ffffffffffffffffffffffffffffffffffffffff1663feaf968c6040518163ffffffff1660e01b815260040160a060405180830381865afa1580156105be573d6000803e3d6000fd5b505050506040513d601f19601f820116820180604052508101906105e29190610c08565b5050509150506402540be400816105f99190610c83565b915050919050565b82805482825590600052602060002090810192821561067a579160200282015b828111156106795782518260006101000a81548173ffffffffffffffffffffffffffffffffffffffff021916908373ffffffffffffffffffffffffffffffffffffffff16021790555091602001919060010190610621565b5b509050610687919061068b565b5090565b5b808211156106a457600081600090555060010161068c565b5090565b600080fd5b600073ffffffffffffffffffffffffffffffffffffffff82169050919050565b60006106d8826106ad565b9050919050565b6106e8816106cd565b81146106f357600080fd5b50565b600081359050610705816106df565b92915050565b600060208284031215610721576107206106a8565b5b600061072f848285016106f6565b91505092915050565b6000819050919050565b61074b81610738565b82525050565b60006020820190506107666000830184610742565b92915050565b6000819050919050565b600061079161078c610787846106ad565b61076c565b6106ad565b9050919050565b60006107a382610776565b9050919050565b60006107b582610798565b9050919050565b6107c5816107aa565b82525050565b60006020820190506107e060008301846107bc565b92915050565b6107ef81610738565b81146107fa57600080fd5b50565b60008135905061080c816107e6565b92915050565b600060208284031215610828576108276106a8565b5b6000610836848285016107fd565b91505092915050565b610848816106cd565b82525050565b6000602082019050610863600083018461083f565b92915050565b600082825260208201905092915050565b7f53656e646572206973206e6f74206f776e657200000000000000000000000000600082015250565b60006108b0601383610869565b91506108bb8261087a565b602082019050919050565b600060208201905081810360008301526108df816108a3565b9050919050565b7f4e487b7100000000000000000000000000000000000000000000000000000000600052603260045260246000fd5b7f4e487b7100000000000000000000000000000000000000000000000000000000600052601160045260246000fd5b600061094f82610738565b91507fffffffffffffffffffffffffffffffffffffffffffffffffffffffffffffffff820361098157610980610915565b5b600182019050919050565b7f4e487b7100000000000000000000000000000000000000000000000000000000600052604160045260246000fd5b600081905092915050565b50565b60006109d66000836109bb565b91506109e1826109c6565b600082019050919050565b60006109f7826109c9565b9150819050919050565b7f43616c6c205472616e73616374696f6e204661696c7572650000000000000000600082015250565b6000610a37601883610869565b9150610a4282610a01565b602082019050919050565b60006020820190508181036000830152610a6681610a2a565b9050919050565b7f4469646e27742073656e6420656e6f7567680000000000000000000000000000600082015250565b6000610aa3601283610869565b9150610aae82610a6d565b602082019050919050565b60006020820190508181036000830152610ad281610a96565b9050919050565b6000610ae482610738565b9150610aef83610738565b9250828202610afd81610738565b91508282048414831517610b1457610b13610915565b5b5092915050565b7f4e487b7100000000000000000000000000000000000000000000000000000000600052601260045260246000fd5b6000610b5582610738565b9150610b6083610738565b925082610b7057610b6f610b1b565b5b828204905092915050565b600069ffffffffffffffffffff82169050919050565b610b9a81610b7b565b8114610ba557600080fd5b50565b600081519050610bb781610b91565b92915050565b6000819050919050565b610bd081610bbd565b8114610bdb57600080fd5b50565b600081519050610bed81610bc7565b92915050565b600081519050610c02816107e6565b92915050565b600080600080600060a08688031215610c2457610c236106a8565b5b6000610c3288828901610ba8565b9550506020610c4388828901610bde565b9450506040610c5488828901610bf3565b9350506060610c6588828901610bf3565b9250506080610c7688828901610ba8565b9150509295509295909350565b6000610c8e82610bbd565b9150610c9983610bbd565b9250828202610ca781610bbd565b91507f80000000000000000000000000000000000000000000000000000000000000008414600084121615610cdf57610cde610915565b5b8282058414831517610cf457610cf3610915565b5b509291505056fea2646970667358221220094a6ec916b826cace8be48fc16c38479d1ce44f14d663059416736fe0fcc4b664736f6c63430008110033",
    "devdoc": {
        "kind": "dev",
        "methods": {},
        "version": 1
    },
    "userdoc": {
        "kind": "user",
        "methods": {},
        "version": 1
    },
    "storageLayout": {
        "storage": [
            {
                "astId": 60,
                "contract": "contracts/FundMe.sol:FundMe",
                "label": "minUSD",
                "offset": 0,
                "slot": "0",
                "type": "t_uint256"
            },
            {
                "astId": 65,
                "contract": "contracts/FundMe.sol:FundMe",
                "label": "priceFeed",
                "offset": 0,
                "slot": "1",
                "type": "t_contract(AggregatorV3Interface)45"
            },
            {
                "astId": 85,
                "contract": "contracts/FundMe.sol:FundMe",
                "label": "funders",
                "offset": 0,
                "slot": "2",
                "type": "t_array(t_address)dyn_storage"
            },
            {
                "astId": 89,
                "contract": "contracts/FundMe.sol:FundMe",
                "label": "FunderToAmount",
                "offset": 0,
                "slot": "3",
                "type": "t_mapping(t_address,t_uint256)"
            }
        ],
        "types": {
            "t_address": {
                "encoding": "inplace",
                "label": "address",
                "numberOfBytes": "20"
            },
            "t_array(t_address)dyn_storage": {
                "base": "t_address",
                "encoding": "dynamic_array",
                "label": "address[]",
                "numberOfBytes": "32"
            },
            "t_contract(AggregatorV3Interface)45": {
                "encoding": "inplace",
                "label": "contract AggregatorV3Interface",
                "numberOfBytes": "20"
            },
            "t_mapping(t_address,t_uint256)": {
                "encoding": "mapping",
                "key": "t_address",
                "label": "mapping(address => uint256)",
                "numberOfBytes": "32",
                "value": "t_uint256"
            },
            "t_uint256": {
                "encoding": "inplace",
                "label": "uint256",
                "numberOfBytes": "32"
            }
        }
    }
}